:020000020000FC
:100000000C9446000C9402000C9404000C9406001E
:100010000C9408000C940A000C940C000C940E0034
:100020000C9410000C9412000C9414000C94160004
:100030000C9418000C941A000C941C000C9485006D
:100040000C9420000C9422000C9424000C942600A4
:100050000C9428000C942A000C942C000C942E0074
:100060000C9430000C9432000C9434000C94360044
:100070000C9438000C943A000C943C000C943E0014
:100080000C9440000C9442000C9444000FE70DBF08
:1000900002E00EBF2DD02FD05DD0789401D0F6CFE6
:1000A000C0E0D1E015E5442419934394E9F74424D2
:1000B0004F929DD0F1F390D04F9012D04F9297D0A5
:1000C0004F9011F40FEF0CD04F9286D04F9008D084
:1000D0004F928DD04F9011F40FEF02D0E9CF0895D9
:1000E000C0E0D1E010E0C40DD11F0883439408950F
:1000F00000E002B90895002702BF04E003BF0DE746
:1001000001BF07B7026007BF0895FF93EF931F93E6
:100110000F934F920F920FB60F9227D00F900FBEF2
:100120000F904F900F911F91EF91FF91189501E063
:100130000093810200E00093820204EF00938302A7
:1001400001E00093840208EC0093850200E0009334
:1001500086020895ECDF0091000000938002009178
:10016000FF00009387020093880201B101680F3FEE
:10017000F1F21091880200938802011711F0D7DF85
:100180002AC0E0918102F09182023197E0938102CE
:10019000F093820271F4009387020091FF000093B4
:1001A00080020091850200938102009186020093F3
:1001B0008202E0918302F09184023197E0938302FE
:1001C000F093840241F40091320000938502009183
:1001D00000000093860208950AD0F1F30FB6F89458
:1001E0000091870210E0109380020FBE08950091E5
:0601F000800200300895BA
:00000001FF
