:020000020000FC
:100000000C9446000C9402000C9404000C9406001E
:100010000C9408000C940A000C940C000C940E0034
:100020000C9410000C9412000C9414000C94160004
:100030000C9418000C941A000C941C000C944301AE
:100040000C9420000C9422000C9424000C942600A4
:100050000C9428000C942A000C942C000C942E0074
:100060000C9430000C9432000C9434000C94360044
:100070000C9438000C943A000C943C000C943E0014
:100080000C9440000C9442000C9444000FE70DBF08
:1000900001E00EBF07D00FD011D159D122D07894F2
:1000A00038D0F4CF00E002B90FEF04BB01BB00274A
:1000B00005BB02BB089504E003BF0DE701BF07B70E
:1000C000026007BF089509E719E7009382011093C2
:1000D0008301089500E510E00093800110938101F1
:1000E0000895F1DFF7DF00E0009386010EE510E1EF
:1000F000009384011093850108950091800110916F
:100100008101F4D008950091820110918301E6D01D
:10011000089500918601023019F0003019F005D0E1
:1001200029D0F7CF02D0F5CF089500918401109126
:100130008501DCD040D10F3919F00D3B0E3BFACFD1
:10014000C9DFC1DF02E0009386010895EEE5F2E029
:100150001591011721F0173F61F03796F9CF3196CD
:10016000259135914591559165917491E62FF72F21
:100170000995089520D1EADF03D0BFDFC4DF0895D9
:1001800000918201109183010F3F19F41F3F09F480
:100190000BC00091800110918101003071F410308A
:1001A00061F40EE510E102C001EA10E00093840161
:1001B0001093850100E0009386010895C0E2DEE41B
:1001C0002197F1F70A95D1F7089540918201509156
:1001D0008301422353234095509542235323209576
:1001E0003095009182011091830102231323042B87
:1001F000152B009382011093830124D00895E42FDE
:10020000F52F009182011091830102231323459160
:100210005591511799F4401789F4459155912095BE
:100220003095009182011091830102231323042B46
:10023000152B009382011093830102C03296E7CF01
:1002400001D00895C0918001D09181012197C09380
:100250008001D09381010C2F1D2F48D00895DF001D
:10026000A82C6404FF00EF00CEC6640EFF00FB0064
:1002700096A76406FF00FD0065036405FF00F70014
:1002800086860000E500FF93EF93DF93CF933F93C3
:100290002F931F930F934F920F920FB60F9265D02B
:1002A0003DD00F900FBE0F904F900F911F912F9147
:1002B0003F91CF91DF91EF91FF91189507D000E02A
:1002C00000938E0101E000938F01089500E017E094
:1002D000C7E8D1E009931A95E9F708951F7E0F7FCB
:1002E000C7E8D1E02096199308830895C7E8D1E0C4
:1002F000239624E04427302F3F70E4E5F4E0E30F39
:10030000F41FC895099216950795169507951695A9
:100310000795169507952A9571F7089520E022BB59
:10032000332720918E01E7E8F1E0E20FF31F008010
:1003300005BA30918F0132BB330F2395273010F06F
:10034000222731E020938E0130938F0108950AE037
:100350000093910100E00093920100E0009390016E
:100360000FEF009394010093930111B11168009174
:100370009401109394011F3F11F0011731F00AE02E
:100380000093910100E000939201E0919101F091BE
:1003900092013197E0939101F093920159F41093F7
:1003A00093010FEF0093900108E80093910103E19E
:1003B0000093920108950AD0F1F30FB6F8940091DA
:1003C000930110E0109390010FBE089500919001E9
:1003D0000030089500000000000000000000000050
:1003E000000000000000000000000000000000000D
:1003F000000000000000C00000000040B6530000F4
:1004000000080000F7417E5BC99BBF51FFD9000087
:10041000000A00007FFDFFB6F7BEBCBFED416700DC
:10042000A60000F7FC00009B00E7000000C900B632
:10043000005300028000AF2E6F0000DBAD01000012
:10044000A4002D2F00002C00AE27000000CB0000E0
:1004500041001000F7417E5BC99BBF51FFD9FDAF42
:10046000B66FBEBC000000000004002000200008A1
:100470000024002800080800000C082000280808B4
:10048000002C08280800800008048020082080082C
:100490000824802808088800080C88200828880874
:1004A000082C88288000200080042020802020083C
:1004B0008024202880082800800C282080282808F4
:1004C000802C28288800A0008804A0208820A0086C
:1004D0008824A0288808A800880CA8208828A808B4
:1004E000882CA82820000004200400242020000CD0
:1004F0002024002C20080804200C08242028080CA4
:10050000202C082C28008004280480242820800C1B
:100510002824802C28088804280C88242828880C63
:10052000282C882CA0002004A0042024A020200C2B
:10053000A024202CA0082804A00C2824A028280CE3
:10054000A02C282CA800A004A804A024A820A00C5B
:10055000A824A02CA808A804A80CA824A828A80CA3
:10056000A82CA82C000000000001010001004000A0
:100570000101410040000400400105004100440029
:100580004101450004002000040121000500600035
:100590000501610044002400440125004500640079
:1005A00045016500200000022001010221004002F7
:1005B0002101410260000402600105026100440261
:1005C000610145022400200224012102250060026D
:1005D00025016102640024026401250265006402B1
:1005E00065016502000200010003010101024001F2
:1005F000010341014002040140030501410244019D
:1006000041034501040220010403210105026001A8
:1006100005036101440224014403250145026401EC
:10062000450365012002000320030103210240036A
:1006300021034103600204036003050361024403D4
:1006400061034503240220032403210325026003E0
:100650002503610364022403640325036502640324
:10066000650365030000000010008000800000802A
:10067000900080800080002010808020808000A07A
:10068000908080A00020000410208004802000843E
:100690009020808400A0002410A0802480A000A4CA
:1006A00090A080A400040002100480028004008254
:1006B000900480820084002210848022808400A222
:1006C000908480A2002400061024800680240086E6
:1006D0009024808600A4002610A4802680A400A672
:1006E00090A480A600020001100280018002008117
:1006F000900280810082002110828021808200A1EE
:10070000908280A1002200051022800580220085B1
:100710009022808500A2002510A2802580A200A53D
:1007200090A280A5000600031006800380060083C7
:10073000900680830086002310868023808600A395
:10074000908680A300260007102680078026008759
:100750009026808700A6002710A6802780A600A7E5
:1007600090A680A700010200100182008001028093
:10077000900182800081022010818220808102A06D
:10078000908182A000210204102182048021028431
:100790009021828400A1022410A1822480A102A4BD
:1007A00090A182A400050202100582028005028247
:1007B000900582820085022210858222808502A215
:1007C000908582A2002502061025820680250286D9
:1007D0009025828600A5022610A5822680A502A665
:1007E00090A582A60003020110038201800302810A
:1007F000900382810083022110838221808302A1E1
:10080000908382A1002302051023820580230285A4
:100810009023828500A3022510A3822580A302A530
:1008200090A382A5000702031007820380070283BA
:10083000900782830087022310878223808702A388
:10084000908782A30027020710278207802702874C
:100850009027828700A7022710A7822780A702A7D8
:1008600090A782A702000400120084008200048086
:10087000920084800280042012808420828004A060
:10088000928084A002200404122084048220048424
:100890009220848402A0042412A0842482A004A4B0
:1008A00092A084A40204040212048402820404823A
:1008B000920484820284042212848422828404A208
:1008C000928484A2022404061224840682240486CC
:1008D0009224848602A4042612A4842682A404A658
:1008E00092A484A6020204011202840182020481FD
:1008F000920284810282042112828421828204A1D4
:10090000928284A102220405122284058222048597
:100910009222848502A2042512A2842582A204A523
:1009200092A284A5020604031206840382060483AD
:10093000920684830286042312868423828604A37B
:10094000928684A30226040712268407822604873F
:100950009226848702A6042712A6842782A604A7CB
:1009600092A684A702010600120186008201068079
:10097000920186800281062012818620828106A053
:10098000928186A002210604122186048221068417
:100990009221868402A1062412A1862482A106A4A3
:1009A00092A186A40205060212058602820506822D
:1009B000920586820285062212858622828506A2FB
:1009C000928586A2022506061225860682250686BF
:1009D0009225868602A5062612A5862682A506A64B
:1009E00092A586A6020306011203860182030681F0
:1009F000920386810283062112838621828306A1C7
:100A0000928386A10223060512238605822306858A
:100A10009223868502A3062512A3862582A306A516
:100A200092A386A5020706031207860382070683A0
:100A3000920786830287062312878623828706A36E
:100A4000928786A302270607122786078227068732
:100A50009227868702A7062712A7862782A706A7BE
:100A600092A786A704001000140090008400108054
:100A7000940090800480102014809020848010A026
:100A8000948090A0042010041420900484201084EA
:100A90009420908404A0102414A0902484A010A476
:100AA00094A090A404041002140490028404108200
:100AB000940490820484102214849022848410A2CE
:100AC000948490A204241006142490068424108692
:100AD0009424908604A4102614A4902684A410A61E
:100AE00094A490A6040210011402900184021081C3
:100AF000940290810482102114829021848210A19A
:100B0000948290A10422100514229005842210855D
:100B10009422908504A2102514A2902584A210A5E9
:100B200094A290A504061003140690038406108373
:100B3000940690830486102314869023848610A341
:100B4000948690A304261007142690078426108705
:100B50009426908704A6102714A6902784A610A791
:100B600094A690A70401120014019200840112803F
:100B7000940192800481122014819220848112A019
:100B8000948192A0042112041421920484211284DD
:100B90009421928404A1122414A1922484A112A469
:100BA00094A192A4040512021405920284051282F3
:100BB000940592820485122214859222848512A2C1
:100BC000948592A204251206142592068425128685
:100BD0009425928604A5122614A5922684A512A611
:100BE00094A592A6040312011403920184031281B6
:100BF000940392810483122114839221848312A18D
:100C0000948392A104231205142392058423128550
:100C10009423928504A3122514A3922584A312A5DC
:100C200094A392A504071203140792038407128366
:100C3000940792830487122314879223848712A334
:100C4000948792A3042712071427920784271287F8
:100C50009427928704A7122714A7922784A712A784
:100C600094A792A706001400160094008600148032
:100C7000960094800680142016809420868014A00C
:100C8000968094A0062014041620940486201484D0
:100C90009620948406A0142416A0942486A014A45C
:100CA00096A094A4060414021604940286041482E6
:100CB000960494820684142216849422868414A2B4
:100CC000968494A206241406162494068624148678
:100CD0009624948606A4142616A4942686A414A604
:100CE00096A494A6060214011602940186021481A9
:100CF000960294810682142116829421868214A180
:100D0000968294A106221405162294058622148543
:100D10009622948506A2142516A2942586A214A5CF
:100D200096A294A506061403160694038606148359
:100D3000960694830686142316869423868614A327
:100D4000968694A3062614071626940786261487EB
:100D50009626948706A6142716A6942786A614A777
:100D600096A694A706011600160196008601168025
:100D7000960196800681162016819620868116A0FF
:100D8000968196A0062116041621960486211684C3
:100D90009621968406A1162416A1962486A116A44F
:100DA00096A196A4060516021605960286051682D9
:100DB000960596820685162216859622868516A2A7
:100DC000968596A20625160616259606862516866B
:100DD0009625968606A5162616A5962686A516A6F7
:100DE00096A596A60603160116039601860316819C
:100DF000960396810683162116839621868316A173
:100E0000968396A106231605162396058623168536
:100E10009623968506A3162516A3962586A316A5C2
:100E200096A396A50607160316079603860716834C
:100E3000960796830687162316879623868716A31A
:100E4000968796A3062716071627960786271687DE
:100E50009627968706A7162716A7962786A716A76A
:100E600096A796A700000000004000040004008040
:100E7000004400840080080000C00804008408804A
:100E800000C40884080080000840800408048080B2
:100E9000084480840880880008C08804088488800A
:100EA00008C4888480000400804004048004048016
:100EB0008044048480800C0080C00C0480840C80FA
:100EC00080C40C8488008400884084048804848062
:100ED0008844848488808C0088C08C0488848C80BA
:100EE00088C48C8404004000044040040404408012
:100EF000044440840480480004C0480404844880BA
:100F000004C448840C00C0000C40C0040C04C08021
:100F10000C44C0840C80C8000CC0C8040C84C88079
:100F20000CC4C88484004400844044048404448085
:100F30008444448484804C0084C04C0484844C8069
:100F400084C44C848C00C4008C40C4048C04C480D1
:100F50008C44C4848C80CC008CC0CC048C84CC8029
:100F60008CC4CC8440000200404002044004028053
:100F70004044028440800A0040C00A0440840A8041
:100F800040C40A84480082004840820448048280A9
:100F90004844828448808A0048C08A0448848A8001
:100FA00048C48A84C0000600C0400604C00406800D
:100FB000C0440684C0800E00C0C00E04C0840E80F1
:100FC000C0C40E84C8008600C8408604C804868059
:100FD000C8448684C8808E00C8C08E04C8848E80B1
:100FE000C8C48E8444004200444042044404428009
:100FF0004444428444804A0044C04A0444844A80B1
:1010000044C44A844C00C2004C40C2044C04C28018
:101010004C44C2844C80CA004CC0CA044C84CA8070
:101020004CC4CA84C4004600C4404604C40446807C
:10103000C4444684C4804E00C4C04E04C4844E8060
:10104000C4C44E84CC00C600CC40C604CC04C680C8
:10105000CC44C684CC80CE00CCC0CE04CC84CE8020
:10106000CCC4CE84020000020240000602040082CA
:10107000024400860280080202C008060284088238
:1010800002C408860A0080020A4080060A048082A0
:101090000A4480860A8088020AC088060A848882F8
:1010A0000AC4888682000402824004068204048204
:1010B0008244048682800C0282C00C0682840C82E8
:1010C00082C40C868A0084028A4084068A04848250
:1010D0008A4484868A808C028AC08C068A848C82A8
:1010E0008AC48C8606004002064040060604408200
:1010F000064440860680480206C0480606844882A8
:1011000006C448860E00C0020E40C0060E04C0820F
:101110000E44C0860E80C8020EC0C8060E84C88267
:101120000EC4C88686004402864044068604448273
:101130008644448686804C0286C04C0686844C8257
:1011400086C44C868E00C4028E40C4068E04C482BF
:101150008E44C4868E80CC028EC0CC068E84CC8217
:101160008EC4CC8642000202424002064204028241
:101170004244028642800A0242C00A0642840A822F
:1011800042C40A864A0082024A4082064A04828297
:101190004A4482864A808A024AC08A064A848A82EF
:1011A0004AC48A86C2000602C2400606C2040682FB
:1011B000C2440686C2800E02C2C00E06C2840E82DF
:1011C000C2C40E86CA008602CA408606CA04868247
:1011D000CA448686CA808E02CAC08E06CA848E829F
:1011E000CAC48E86460042024640420646044282F7
:1011F0004644428646804A0246C04A0646844A829F
:1012000046C44A864E00C2024E40C2064E04C28206
:101210004E44C2864E80CA024EC0CA064E84CA825E
:101220004EC4CA86C6004602C6404606C60446826A
:10123000C6444686C6804E02C6C04E06C6844E824E
:10124000C6C44E86CE00C602CE40C606CE04C682B6
:10125000CE44C686CE80CE02CEC0CE06CE84CE820E
:10126000CEC4CE860002004000420044000600C00A
:10127000004600C40082084000C20844008608C03E
:1012800000C608C40802804008428044080680C0A6
:10129000084680C40882884008C28844088688C0FE
:1012A00008C688C48002044080420444800604C00A
:1012B000804604C480820C4080C20C4480860CC0EE
:1012C00080C60CC48802844088428444880684C056
:1012D000884684C488828C4088C28C4488868CC0AE
:1012E00088C68CC40402404004424044040640C006
:1012F000044640C40482484004C24844048648C0AE
:1013000004C648C40C02C0400C42C0440C06C0C015
:101310000C46C0C40C82C8400CC2C8440C86C8C06D
:101320000CC6C8C48402444084424444840644C079
:10133000844644C484824C4084C24C4484864CC05D
:1013400084C64CC48C02C4408C42C4448C06C4C0C5
:101350008C46C4C48C82CC408CC2CC448C86CCC01D
:101360008CC6CCC44002024040420244400602C047
:10137000404602C440820A4040C20A4440860AC035
:1013800040C60AC44802824048428244480682C09D
:10139000484682C448828A4048C28A4448868AC0F5
:1013A00048C68AC4C0020640C0420644C00606C001
:1013B000C04606C4C0820E40C0C20E44C0860EC0E5
:1013C000C0C60EC4C8028640C8428644C80686C04D
:1013D000C84686C4C8828E40C8C28E44C8868EC0A5
:1013E000C8C68EC44402424044424244440642C0FD
:1013F000444642C444824A4044C24A4444864AC0A5
:1014000044C64AC44C02C2404C42C2444C06C2C00C
:101410004C46C2C44C82CA404CC2CA444C86CAC064
:101420004CC6CAC4C4024640C4424644C40646C070
:10143000C44646C4C4824E40C4C24E44C4864EC054
:10144000C4C64EC4CC02C640CC42C644CC06C6C0BC
:10145000CC46C6C4CC82CE40CCC2CE44CC86CEC014
:10146000CCC6CEC40202004202420046020600C2BE
:10147000024600C60282084202C20846028608C22C
:1014800002C608C60A0280420A4280460A0680C294
:101490000A4680C60A8288420AC288460A8688C2EC
:1014A0000AC688C68202044282420446820604C2F8
:1014B000824604C682820C4282C20C4682860CC2DC
:1014C00082C60CC68A0284428A4284468A0684C244
:1014D0008A4684C68A828C428AC28C468A868CC29C
:1014E0008AC68CC60602404206424046060640C2F4
:1014F000064640C60682484206C24846068648C29C
:1015000006C648C60E02C0420E42C0460E06C0C203
:101510000E46C0C60E82C8420EC2C8460E86C8C25B
:101520000EC6C8C68602444286424446860644C267
:10153000864644C686824C4286C24C4686864CC24B
:1015400086C64CC68E02C4428E42C4468E06C4C2B3
:101550008E46C4C68E82CC428EC2CC468E86CCC20B
:101560008EC6CCC64202024242420246420602C235
:10157000424602C642820A4242C20A4642860AC223
:1015800042C60AC64A0282424A4282464A0682C28B
:101590004A4682C64A828A424AC28A464A868AC2E3
:1015A0004AC68AC6C2020642C2420646C20606C2EF
:1015B000C24606C6C2820E42C2C20E46C2860EC2D3
:1015C000C2C60EC6CA028642CA428646CA0686C23B
:1015D000CA4686C6CA828E42CAC28E46CA868EC293
:1015E000CAC68EC64602424246424246460642C2EB
:1015F000464642C646824A4246C24A4646864AC293
:1016000046C64AC64E02C2424E42C2464E06C2C2FA
:101610004E46C2C64E82CA424EC2CA464E86CAC252
:101620004EC6CAC6C6024642C6424646C60646C25E
:10163000C64646C6C6824E42C6C24E46C6864EC242
:10164000C6C64EC6CE02C642CE42C646CE06C6C2AA
:10165000CE46C6C6CE82CE42CEC2CE46CE86CEC202
:10166000CEC6CEC600000002000400060020002204
:101670000024002640004002400440064020402252
:101680004024402600000002000400060020002242
:101690000024002640004002400440064020402232
:1016A000402440260100010201040106012001221C
:1016B000012401264100410241044106412041220A
:1016C00041244126010001020104010601200122FA
:1016D00001240126410041024104410641204122EA
:1016E00041244126000100030005000700210023DA
:1016F00000250027400140034005400740214023CA
:1017000040254027000100030005000700210023B9
:1017100000250027400140034005400740214023A9
:101720004025402701010103010501070121012393
:101730000125012741014103410541074121412381
:101740004125412701010103010501070121012371
:101750000125012741014103410541074121412361
:10176000412541270008000A000C000E0028002A2D
:10177000002C002E4008400A400C400E4028402A11
:10178000402C402E0008000A000C000E0028002A01
:10179000002C002E4008400A400C400E4028402AF1
:1017A000402C402E0108010A010C010E0128012ADB
:1017B000012C012E4108410A410C410E4128412AC9
:1017C000412C412E0108010A010C010E0128012AB9
:1017D000012C012E4108410A410C410E4128412AA9
:1017E000412C412E0009000B000D000F0029002B99
:1017F000002D002F4009400B400D400F4029402B89
:10180000402D402F0009000B000D000F0029002B78
:10181000002D002F4009400B400D400F4029402B68
:10182000402D402F0109010B010D010F0129012B52
:10183000012D012F4109410B410D410F4129412B40
:10184000412D412F0109010B010D010F0129012B30
:10185000012D012F4109410B410D410F4129412B20
:10186000412D412F00000200200022008000820054
:10187000A000A20010001200300032009000920080
:10188000B000B200000002002000220080008200B0
:10189000A000A20010001200300032009000920060
:1018A000B000B20000800280208022808080828090
:1018B000A080A28010801280308032809080928040
:1018C000B080B28000800280208022808080828070
:1018D000A080A28010801280308032809080928020
:1018E000B080B28004000600240026008400860038
:1018F000A400A600140016003400360094009600E0
:10190000B400B6000400060024002600840086000F
:10191000A400A600140016003400360094009600BF
:10192000B400B600048006802480268084808680EF
:10193000A480A6801480168034803680948096809F
:10194000B480B680048006802480268084808680CF
:10195000A480A6801480168034803680948096807F
:10196000B480B68008000A0028002A0088008A0097
:10197000A800AA0018001A0038003A0098009A003F
:10198000B800BA0008000A0028002A0088008A006F
:10199000A800AA0018001A0038003A0098009A001F
:1019A000B800BA0008800A8028802A8088808A804F
:1019B000A880AA8018801A8038803A8098809A80FF
:1019C000B880BA8008800A8028802A8088808A802F
:1019D000A880AA8018801A8038803A8098809A80DF
:1019E000B880BA800C000E002C002E008C008E00F7
:1019F000AC00AE001C001E003C003E009C009E009F
:101A0000BC00BE000C000E002C002E008C008E00CE
:101A1000AC00AE001C001E003C003E009C009E007E
:101A2000BC00BE000C800E802C802E808C808E80AE
:101A3000AC80AE801C801E803C803E809C809E805E
:101A4000BC80BE800C800E802C802E808C808E808E
:101A5000AC80AE801C801E803C803E809C809E803E
:041A6000BC80BE8008
:00000001FF
