:020000020000FC
:100000000C9446000C9402000C9404000C9406001E
:100010000C9408000C940A000C940C000C940E0034
:100020000C9410000C9412000C9414000C94160004
:100030000C9418000C941A000C941C000C943501BC
:100040000C9420000C9422000C9424000C942600A4
:100050000C9428000C942A000C942C000C942E0074
:100060000C9430000C9432000C9434000C94360044
:100070000C9438000C943A000C943C000C943E0014
:100080000C9440000C9442000C9444000FE70DBF08
:1000900001E00EBF04D10CD19FD0789401D0F6CFEF
:1000A000A3D004E626D0E0E0F1E005911591EF93AE
:1000B000FF93A2D0FF91EF9104911BD0059119D02D
:1000C000319641E0E03BF40781F7E0EBF1E0059188
:1000D0001591EF93FF9398D0FF91EF91049109D080
:1000E000059107D0319641E0E83DF40781F7D8CF7C
:1000F0000895C0E2DEE42197F1F70A95D1F708955B
:10010000FFFF6400000064006503640060011400E8
:10011000050214006001140005021400CEC664003C
:1001200086C014004806140086C014004806140057
:100130008686640004821400820414000482140081
:100140008204140096A7640012861400842114000F
:100150001286140084211400A82C6400800C140062
:1001600028201400800C1400282014000000320005
:1001700000401400000114000002140000041400E8
:1001800000201400010014000200140020001400DC
:100190000080140000081400400014000400140043
:1001A00080001400080014001000140000000A0071
:1001B00088889600000096003412960078569600C3
:1001C000BC9A9600F0DE9600FFFF9600347796000A
:1001D000ADDE9600EFBE960007D000E000938701E9
:1001E00001E000938801089500E017E0C0E8D1E045
:1001F00009931A95E9F708951F7E0F7FC0E8D1E0B3
:100200002096199308830895C0E8D1E0239624E04E
:100210004427302F3F70E0E4F3E0E30FF41FC8956C
:1002200009921695079516950795169507951695B3
:1002300007952A9571F7089520E022BB3327209176
:100240008701E0E8F1E0E20FF31F008005BA30918A
:10025000880132BB330F2395273010F0222731E07D
:1002600020938701309388010895FF93EF93DF93E4
:10027000CF933F932F931F930F934F920F920FB6ED
:100280000F92DADF0F900FBE0F904F900F911F91DA
:100290002F913F91CF91DF91EF91FF91189500E061
:1002A00002B90FEF04BB01BB002705BB02BB0895D9
:1002B00004E003BF0DE701BF07B7026007BF089561
:1002C000000000000000000000000000000000002E
:1002D000000000000000000000000000000000001E
:1002E0000000C00000000040B653000000080000FD
:1002F000F7417E5BC99BBF51FFD90000000A000097
:100300007FFDFFB6F7BEBCBFED416700A60000F75A
:10031000FC00009B00E7000000C900B6005300028B
:100320008000AF2E6F0000DBAD010000A4002D2F78
:1003300000002C00AE27000000CB000041001000A0
:10034000F7417E5BC99BBF51FFD9FDAFB66FBEBC05
:00000001FF
