:020000020000FC
:100000000C9446000C9402000C9404000C9406001E
:100010000C9408000C940A000C940C000C940E0034
:100020000C9410000C9412000C9414000C94160004
:100030000C9418000C941A000C941C000C94C8002A
:100040000C9420000C9422000C9424000C942600A4
:100050000C9428000C942A000C942C000C942E0074
:100060000C9430000C9432000C9434000C94360044
:100070000C9438000C943A000C943C000C943E0014
:100080000C9440000C9442000C9444000FE70DBF08
:1000900002E00EBF2DD02FD038D0789401D0F6CF0B
:1000A000C0E0D1E015E5442419934394E9F74424D2
:1000B0004F926AD0F1F35DD04F9012D04F9264D03E
:1000C0004F9011F40FEF0CD04F9253D04F9008D0B7
:1000D0004F925AD04F9011F40FEF02D0E9CF08950C
:1000E000C0E0D1E010E0C40DD11F0883439408950F
:1000F00000E002B90895002702BF04E003BF0DE746
:1001000001BF07B7026007BF08950AE000938102AC
:1001100000E00093820200E0009380020FEF009362
:1001200084020093830211B111680091840210933C
:1001300084021F3F11F0011731F00AE000938102A1
:1001400000E000938202E0918102F09182023197F7
:10015000E0938102F093820259F4109383020FEF2F
:100160000093800208E80093810203E10093820279
:1001700008950AD0F1F30FB6F8940091830210E0CD
:10018000109380020FBE0895009180020030089500
:10019000FF93EF931F930F934F920F920FB60F920F
:1001A000C2DF0F900FBE0F904F900F911F91EF91F4
:0401B000FF9118950E
:00000001FF
