:020000020000FC
:100000000C9446000C9402000C9404000C9406001E
:100010000C9408000C940A000C940C000C940E0034
:100020000C9410000C9412000C9414000C94160004
:100030000C9418000C941A000C941C000C94E8000A
:100040000C9420000C9422000C9424000C942600A4
:100050000C9428000C942A000C942C000C942E0074
:100060000C9430000C9432000C9434000C94360044
:100070000C9438000C943A000C943C000C943E0014
:100080000C9440000C9442000C9444000FE70DBF08
:1000900002E00EBF2DD02FD038D0789401D0F6CF0B
:1000A000C0E0D1E015E5442419934394E9F74424D2
:1000B0004F928AD0F1F37CD04F9012D04F9284D0DF
:1000C0004F9011F40FEF0CD04F9272D04F9008D098
:1000D0004F927AD04F9011F40FEF02D0E9CF0895EC
:1000E000C0E0D1E010E0C40DD11F0883439408950F
:1000F00000E002B90895002702BF04E003BF0DE746
:1001000001BF07B7026007BF08950AE000938102AC
:1001100000E00093820200E0009380020FEF009362
:1001200088020093870211B1116800918802109330
:100130008802011791F00AE00093810200E0009329
:10014000820200ED0093850207E00093860208E832
:100150000093830203E100938402E0918102F09115
:1001600082023197E0938102F093820201F01093B2
:1001700087020091FF0000938002009185020093A6
:1001800081020091860200938202E0918302F09145
:1001900084023197E0938302F093840201F000918E
:1001A000F4000093850200910100009385020895F8
:1001B0000BD0F1F30FB6F894009187021091000074
:1001C000109380020FBE08950091800200300895C0
:1001D000FF93EF931F930F934F920F920FB60F92CF
:1001E000A2DF0F900FBE0F904F900F911F91EF91D4
:0401F000FF911895CE
:00000001FF
